:020000040800F2
:10000000005000206D160008251400082B1400086D
:1000100031140008371400083D14000800000000E7
:100020000000000000000000000000004314000871
:100030004F140008000000005B140008671400085B
:10004000B5160008B5160008B5160008B516000864
:10005000B5160008B5160008B5160008B516000854
:10006000B5160008B5160008B51600088914000872
:10007000B5160008B5160008B5160008B516000834
:10008000B5160008B5160008B5160008B516000824
:10009000B5160008B5160008B5160008B516000814
:1000A000B5160008B5160008B5160008B516000804
:1000B00075140008B5160008B5160008B516000836
:1000C000B5160008B5160008B5160008B5160008E4
:1000D000B5160008B5160008B5160008B5160008D4
:1000E000B5160008B5160008B51600080000000097
:1000F0000000000000000000000000000000000000
:0C01000000000000000000005FF808F1A3
:1001100010B5054C237833B9044B13B10448AFF341
:1001200000800123237010BD700300200000000038
:10013000643A000808B5034B1BB103490348AFF309
:10014000008008BD0000000074030020643A00082D
:1001500070B54FF0FF0C4CF4E06C1CEA11541DBF5D
:100160001CEA135594EA0C0F95EA0C0F00F0DEF828
:100170002C4481EA030621EA4C5123EA4C5350EA0D
:10018000013518BF52EA033541F4801143F480135E
:1001900038D0A0FB02CE4FF00005E1FB02E506F0EF
:1001A0000042E0FB03E54FF00006E1FB03569CF044
:1001B000000F18BF4EF0010EA4F1FF04B6F5007F4A
:1001C00064F5407404D25FEA4E0E6D4146EB0606BC
:1001D00042EAC62141EA55514FEAC52040EA5E5045
:1001E0004FEACE2EB4F1FD0C88BFBCF5E06F1ED8EF
:1001F000BEF1004F08BF5FEA500E50F1000041EB26
:10020000045170BD06F0004646EA010140EA0200D2
:1002100081EA0301B4EB5C04C2BFD4EB0C0541EAF4
:10022000045170BD41F480114FF0000E013C00F309
:10023000AB8014F1360FDEBF002001F0004170BD2D
:10024000C4F10004203C35DA0C341BDC04F1140446
:10025000C4F1200500FA05F320FA04F001FA05F2D2
:1002600040EA020001F0004221F0004110EBD3709F
:1002700021FA04F642EB06015EEA430E08BF20EACB
:10028000D37070BDC4F10C04C4F1200500FA04F36E
:1002900020FA05F001FA04F240EA020001F0004100
:1002A00010EBD37041F100015EEA430E08BF20EA73
:1002B000D37070BDC4F1200500FA05F24EEA020EBB
:1002C00020FA04F301FA05F243EA020321FA04F0EA
:1002D00001F0004121FA04F220EA020000EBD370A1
:1002E0005EEA430E08BF20EAD37070BD94F0000FA1
:1002F0000FD101F00046400041EB010111F4801FD5
:1003000008BF013CF7D041EA060195F0000F18BF85
:10031000704703F00046520043EB030313F4801FC1
:1003200008BF013DF7D043EA0603704794EA0C0F7B
:100330000CEA135518BF95EA0C0F0CD050EA410691
:1003400018BF52EA4306D1D181EA030101F000410E
:100350004FF0000070BD50EA410606BF1046194636
:1003600052EA430619D094EA0C0F02D150EA013642
:1003700013D195EA0C0F05D152EA03361CBF104683
:1003800019460AD181EA030101F0004141F0FE4122
:1003900041F470014FF0000070BD41F0FE4141F4A6
:1003A000780170BD81F0004102E000BF83F000439E
:1003B00030B54FEA41044FEA430594EA050F08BF00
:1003C00090EA020F1FBF54EA000C55EA020C7FEAC4
:1003D000645C7FEA655C00F0E2804FEA5454D4EB41
:1003E0005555B8BF6D420CDD2C4480EA020281EA0B
:1003F000030382EA000083EA010180EA020281EA43
:100400000303362D88BF30BD11F0004F4FEA013194
:100410004FF4801C4CEA113102D0404261EB4101A3
:1004200013F0004F4FEA03334CEA133302D0524229
:1004300063EB430394EA050F00F0A780A4F10104E5
:10044000D5F1200E0DDB02FA0EFC22FA05F280181F
:1004500041F1000103FA0EF2801843FA05F3594105
:100460000EE0A5F120050EF1200E012A03FA0EFC84
:1004700028BF4CF0020C43FA05F3C01851EBE371AE
:1004800001F0004507D54FF0000EDCF1000C7EEBCB
:1004900000006EEB0101B1F5801F1BD3B1F5001F09
:1004A0000CD349085FEA30004FEA3C0C04F1010428
:1004B0004FEA445212F5800F80F09A80BCF1004F51
:1004C00008BF5FEA500C50F1000041EB045141EAD3
:1004D000050130BD5FEA4C0C404141EB0101013C9C
:1004E00028BFB1F5801FE9D291F0000F04BF01468B
:1004F0000020B1FA81F308BF2033A3F10B03B3F15D
:1005000020020CDA0C3208DD02F1140CC2F10C02EC
:1005100001FA0CF021FA02F10CE002F11402D8BF4A
:10052000C2F1200C01FA02F120FA0CFCDCBF41EA16
:100530000C019040E41AA2BF01EB0451294330BDE5
:100540006FEA04041F3C1CDA0C340EDC04F11404C2
:10055000C4F1200220FA04F001FA02F340EA030099
:1005600021FA04F345EA030130BDC4F10C04C4F1DF
:10057000200220FA02F001FA04F340EA03002946BF
:1005800030BD21FA04F0294630BD94F0000F83F409
:10059000801306BF81F480110134013D4EE77FEAEC
:1005A000645C18BF7FEA655C29D094EA050F08BF38
:1005B00090EA020F05D054EA000C04BF1946104619
:1005C00030BD91EA030F1EBF0021002030BD5FEA5D
:1005D000545C05D14000494128BF41F0004130BD85
:1005E00014F580043CBF01F5801130BD01F00045D9
:1005F00045F0FE4141F470014FF0000030BD7FEA4C
:10060000645C1ABF194610467FEA655C1CBF0B4646
:10061000024650EA013406BF52EA033591EA030F5D
:1006200041F4002130BD00BF90F0000F04BF002155
:10063000704730B54FF4806404F132044FF0000588
:100640004FF0000150E700BF90F0000F04BF002101
:10065000704730B54FF4806404F1320410F0004567
:1006600048BF40424FF000013EE700BF42004FEA62
:10067000E2014FEA31014FEA02701FBF12F07F43DF
:1006800093F07F4F81F06051704732F07F4208BF96
:10069000704793F07F4F04BF41F40021704730B59D
:1006A0004FF4607401F0004521F000411CE700BFE9
:1006B00050EA010208BF704730B54FF000050AE06C
:1006C00050EA010208BF704730B511F0004502D56D
:1006D000404261EB41014FF4806404F132045FEA6F
:1006E000915C3FF4D8AE4FF003025FEADC0C18BF18
:1006F00003325FEADC0C18BF033202EBDC02C2F10A
:10070000200300FA03FC20FA02F001FA03FE40EA9B
:100710000E0021FA02F11444BDE600BF4FEA410287
:10072000B2F1E04324BFB3F5001CDCF1FE5C0DD94F
:1007300001F0004C4FEAC0024CEA5070B2F1004F99
:1007400040EB830008BF20F00100704711F0804F9C
:1007500021D113F13872BCBF01F00040704741F461
:1007600080114FEA5252C2F11802C2F1200C10FA65
:100770000CF320FA02F018BF40F001004FEAC12349
:100780004FEAD32303FA0CFC40EA0C0023FA02F3ED
:100790004FEA4303CCE77FEA625307D150EA0133C3
:1007A0001EBF4FF0FE4040F44000704701F0004093
:1007B00040F0FE4040F40000704700BF80F0004071
:1007C00002E000BF81F0004142001FBF5FEA410329
:1007D00092EA030F7FEA226C7FEA236C6AD04FEA29
:1007E0001262D2EB1363C1BFD2184140484041406E
:1007F000B8BF5B42192B88BF704710F0004F40F420
:10080000000020F07F4018BF404211F0004F41F43B
:10081000000121F07F4118BF494292EA030F3FD007
:10082000A2F1010241FA03FC10EB0C00C3F120031A
:1008300001FA03F100F0004302D5494260EB4000A9
:10084000B0F5000F13D3B0F1807F06D340084FEA14
:10085000310102F10102FE2A51D2B1F1004F40EB09
:10086000C25008BF20F0010040EA03007047490071
:1008700040EB0000013A28BFB0F5000FEDD2B0FA0E
:1008800080FCACF1080CB2EB0C0200FA0CF0AABF31
:1008900000EBC25052421843BCBFD04018437047CF
:1008A00092F0000F81F4000106BF80F400000132D5
:1008B000013BB5E74FEA41037FEA226C18BF7FEAAC
:1008C000236C21D092EA030F04D092F0000F08BFEE
:1008D0000846704790EA010F1CBF0020704712F0D5
:1008E0007F4F04D1400028BF40F00040704712F114
:1008F00000723CBF00F50000704700F0004343F079
:10090000FE4040F4000070477FEA226216BF0846AE
:100910007FEA23630146420206BF5FEA412390EA71
:10092000010F40F4800070474FF0000304E000BF67
:1009300010F0004348BF40425FEA000C08BF704718
:1009400043F0964301464FF000001CE050EA0102DC
:1009500008BF70474FF000030AE000BF50EA0102F1
:1009600008BF704711F0004302D5404261EB4101DE
:100970005FEA010C02BF84460146002043F0B64303
:1009800008BFA3F18053A3F50003BCFA8CF2083A28
:10099000A3EBC25310DB01FA02FC634400FA02FC31
:1009A000C2F12002BCF1004F20FA02F243EB020038
:1009B00008BF20F00100704702F1200201FA02FC9A
:1009C000C2F1200250EA4C0021FA02F243EB02008D
:1009D00008BF20EADC70704780B485B000AF786053
:1009E0004B4B5B684A4B4FF0FF325A600023FB735E
:1009F00084E0FB7B9B007A6813441B78C3F30003FD
:100A0000DBB21946FB7B9B007A6813441B78C3F367
:100A10004003DBB25B0041EA0302FB7B9B00796889
:100A20000B441B78C3F38003DBB29B001A43FB7BB0
:100A30009B0079680B441B78C3F3C003DBB2DB0077
:100A40001A43FB7B9B0079680B441B78C3F30013AC
:100A5000DBB21B011A43FB7B9B0079680B441B78BC
:100A6000C3F34013DBB25B011A43FB7B9B00796845
:100A70000B441B78C3F38013DBB29B011A43FB7B4F
:100A80009B0079680B441B78C3F3C013DBB2DB0116
:100A90001A43FB7B9B0079680B445B78C3F301032B
:100AA000DBB21B021A43FB7B9B0079680B445B782B
:100AB000C3F38103DBB29B021A43FB7B9B00796883
:100AC0000B445B78C3F30113DBB21B031A43FB7BBC
:100AD0009B0079680B445B78C3F38013DBB29B0304
:100AE00013430B49FA7B184613469B0013449B00A3
:100AF0000B4408331860FB7B0133FB73FB7B062B35
:100B00007FF677AF00BF00BF1437BD4680BC70478B
:100B10000000024080B483B000AF0346FB710C4973
:100B2000FA7913469B0013449B000B4408331B685F
:100B30000748FA7943F0010113469B0013449B00D8
:100B400003440833196000BF0C37BD4680BC7047B2
:100B50000000024080B483B000AF0346FB710C4933
:100B6000FA7913469B0013449B000B4408331B681F
:100B70000748FA7923F0010113469B0013449B00B8
:100B800003440833196000BF0C37BD4680BC704772
:100B90000000024080B584B000AFB9607A601A46A8
:100BA0000346FB731346BB81FB7B1846FFF7D2FF5E
:100BB0002349FA7B13469B0013449B000B440833E4
:100BC0001B6803F00403002B14D11D48FA7B7968DD
:100BD00013469B0013449B000344143319601848C8
:100BE000FA7BB96813469B0013449B0003441033FF
:100BF000196013E01248FA7BB96813469B0013444E
:100C00009B000344143319600D48FA7B796813463E
:100C10009B0013449B000344103319600848FA7B7F
:100C2000B98913469B0013449B0003440C3319609D
:100C3000FB7B1846FFF76EFF00BF1037BD4680BD37
:100C40000000024080B483B000AF03463960FB71FE
:100C50003B68002B04D0FB793A68044941F8232013
:100C600000BF0C37BD4680BC704700BF8C0300201E
:100C700080B500AF00F0C4F90346024A136000BF1C
:100C800080BD00BFAC03002080B500AF0221054845
:100C900001F04AFC044B1B780133DAB2024B1A70A4
:100CA00000BF80BD00080140A803002080B500AF50
:100CB0000421054801F038FC044B1B780133DAB2FB
:100CC000024B1A7000BF80BD00080140A80300203D
:100CD00080B483B000AF0323FB71FB795A1E154922
:100CE00013465B0013449B000B44063301221A7029
:100CF000FB795A1E0F4913465B0013449B000B44BB
:100D0000073300221A70FB79013BFB71FA7909491C
:100D100013465B0013449B000B44083300221A70F7
:100D2000FB79002BD9D100BF00BF0C37BD4680BC7A
:100D3000704700BF1C00002080B483B000AF0323C5
:100D4000FB71FB795A1E2D4913465B0013449B002F
:100D50000B4407331B780133D8B2284913465B0094
:100D600013449B000B440733014619702349134673
:100D70005B0013449B000B4407331B7899B2FB794B
:100D80005A1E1E4813465B0013449B000344043361
:100D90001B881B4AA2FB03235B099BB2994221D308
:100DA000FB795A1E154913465B0013449B000B4404
:100DB00006331B78012B15D1FB795A1E0F491346B8
:100DC0005B0013449B000B44083301221A70FB792B
:100DD0005A1E0A4913465B0013449B000B44073319
:100DE00000221A70FB79013BFB71FB79002BA8D123
:100DF00000BF00BF0C37BD4680BC70471C00002000
:100E0000D34D621080B483B000AF0346FB71FA7912
:100E1000064913465B0013449B000B4408331B78C0
:100E200018460C37BD4680BC704700BF1C00002030
:100E300080B483B000AF0346FB71FA7906491346CC
:100E40005B0013449B000B44083300221A7000BF60
:100E50000C37BD4680BC70471C00002080B582B0B6
:100E600000AF0323FB71FB79013BDBB21846FFF7B0
:100E7000C9FF0346002B0FD0FB795A1E0C491346BD
:100E80005B0013449B000B441B689847FB79013BB4
:100E9000DBB21846FFF7CCFFFB79013BFB71FB7916
:100EA000002BE0D100BF00BF0837BD4680BD00BFAA
:100EB0001C00002080B483B000AF7860444B002257
:100EC0001A60434B00225A603B79C3F30003DBB244
:100ED0001A463B79C3F34003DBB25B001A433B790C
:100EE000C3F38003DBB29B001A433B79C3F3C20315
:100EF000DBB2DB001A433B79C3F3C013DBB2DB0187
:100F00001A437B79C3F30003DBB21B021A437B79DC
:100F1000C3F34003DBB25B021A437B79C3F3800364
:100F2000DBB29B021A437B79C3F3C003DBB2DB0263
:100F30001A437B79C3F30013DBB21B031A437B799B
:100F4000C3F34013DBB25B031A437B79C3F3801313
:100F5000DBB29B031A437B79C3F3C013DBB2DB0321
:100F60001A431B4B1A60BB79C3F30003DBB21A466A
:100F7000BB79C3F34003DBB25B001A43BB79C3F315
:100F80008003DBB29B001A43BB79C3F34013DBB28F
:100F90005B011A43BB79C3F38013DBB29B011A4395
:100FA000BB79C3F3C013DBB2DB011A43084B5A60B1
:100FB000074B1B683A79C2F38012D2B292011146F4
:100FC000034A0B43136000BF0C37BD4680BC70471B
:100FD0000030014080B500AF4FF47A71064800F050
:100FE00053FD054800F056FE03469AB2034B1A80A3
:100FF000024B1B88184680BDB4030020B0030020BC
:1010000080B582B000AFFFF7E5FF0346FB804FF0ED
:1010100000033B60FB881846FFF786FC0346184632
:10102000FFF724FB0CA3D3E90023FFF791F8024656
:101030000B460BA1D1E90001FFF7B8F902460B46B8
:1010400010461946FFF76AFB03463B603B681846AB
:101050000837BD4680BD00BFAD4F39268BFBC73F6B
:10106000B0726891ED58764080B584B000AF3B1DFA
:1010700000221A605A609A601C4B1D4A1A601B4B72
:1010800000229A60194B01221A73184B00221A751C
:10109000164B4FF46022DA61144B00225A60134B56
:1010A00001221A61114800F069FB0346002B01D0B0
:1010B00000F07CF910237B600123BB600523FB60FB
:1010C0003B1D1946094800F0F1FD0346002B01D0F5
:1010D00000F06CF9054B1B689A68044B1B6842F4DE
:1010E00080729A6000BF1037BD4680BDB4030020F7
:1010F0000024014080B485B000AF78607B681B6835
:10110000094A93420BD1094B9B69084A43F4007387
:101110009361064B9B6903F40073FB60FB6800BF9F
:101120001437BD4680BC70470024014000100240C7
:1011300080B586B000AF07F1080300221A605A603C
:101140009A60DA60204B9B691F4A43F02003936149
:101150001D4B9B6903F020037B607B681A4B9B69E6
:10116000194A43F004039361174B9B6903F004038E
:101170003B603B6801228221144801F0BDF9002246
:101180000C21124801F0B8F90223BB601123FB6067
:1011900001233B6102237B6107F1080319460B48D9
:1011A00001F026F88C23BB600123FB6000233B6128
:1011B00002237B6107F108031946044801F018F87F
:1011C00000BF1837BD4680BD001002400008014036
:1011D00080B582B000AF00F06FFA00F05BF8FFF767
:1011E000A7FF00F061F9FFF73FFF00F0C7F900F03B
:1011F000ACF8FFF76DFD1D4801F07CFF1C4800F0C6
:1012000095FB1C4B5B691B4A43F001035361194B6F
:101210005B6903F001037B607B681748FFF7DCFB29
:10122000144B9B69134A43F480539361114B9B69A0
:1012300003F480533B603B68104B1A681346184612
:10124000FFF738FE0E490020FFF7FCFC64230D4A2F
:101250000D490020FFF79EFC64230C4A0C49012035
:10126000FFF798FCFFF7FAFDFCE700BFE80300205A
:10127000B4030020001002400000002040000020C5
:1012800081130008440000204C240140D4010020B8
:10129000B003002080B594B000AF07F128032822E6
:1012A0000021184602F0B2FB07F1140300221A6075
:1012B0005A609A60DA601A613B1D00221A605A6017
:1012C0009A60DA600123BB624FF48033FB62002333
:1012D0003B630123BB6302237B644FF48033BB6415
:1012E0004FF4E013FB6407F12803184601F036F9C8
:1012F0000346002B01D000F059F80F237B61022335
:10130000BB610023FB614FF480633B6200237B627F
:1013100007F114030221184601F0A2FB0346002B3B
:1013200001D000F043F802237B604FF40043FB60E0
:101330003B1D184601F022FD0346002B01D000F0B2
:1013400035F800BF5037BD4680BD80B500AF0022E4
:1013500001211C2000F015FF1C2000F02EFF00BF13
:1013600080BD80B582B000AF78607B681B68B3F148
:10137000804F01D1FFF7E0FC00BF0837BD4680BDBC
:1013800080B400AF084B1B78FF2B06D0064B1B78B0
:101390000133DAB2044B1A7002E0034B00221A70D8
:1013A00000BFBD4680BC7047E403002080B500AF9D
:1013B00072B600BFFFF752FDFCE7000080B584B0B5
:1013C00000AF164B9B69154A43F001039361134B21
:1013D0009B6903F00103BB60BB68104BDB690F4ADC
:1013E00043F08053D3610D4BDB6903F080537B6086
:1013F0007B68042000F0BAFE094B5B68FB60FB6869
:1014000023F0E063FB60FB6843F00073FB60044A79
:10141000FB68536000BF1037BD4680BD001002401E
:101420000000014080B400AFFEE780B400AFFEE7EB
:1014300080B400AFFEE780B400AFFEE780B400AF39
:10144000FEE780B400AF00BFBD4680BC704780B4EB
:1014500000AF00BFBD4680BC704780B400AF00BF86
:10146000BD4680BC704780B500AF00F06BF900BF8F
:1014700080BD000080B500AF024801F08DFE00BFC6
:1014800080BD00BFE803002080B500AF024B1B68A1
:10149000984700BF80BD00BF8C03002080B400AF20
:1014A00000BFBD4680BC704780B586B000AF07F175
:1014B000080300221A605A609A60DA603B460022F4
:1014C0001A605A601E4B4FF080421A601C4B41F666
:1014D0001F425A601A4B00229A60194B41F288321F
:1014E000DA60174B00221A61154B00229A611448EA
:1014F00001F0B0FD0346002B01D0FFF757FF4FF47A
:101500008053BB6007F1080319460D4801F04CFFFA
:101510000346002B01D0FFF749FF00233B60002367
:101520007B603B461946064802F022F90346002B31
:1015300001D0FFF73BFF00BF1837BD4680BD00BF9D
:10154000E803002080B485B000AF78607B681B683A
:10155000B3F1804F0BD1084BDB69074A43F001031D
:10156000D361054BDB6903F00103FB60FB6800BF3F
:101570001437BD4680BC70470010024080B500AFF4
:10158000124B134A1A60114B4FF416525A600F4B0C
:101590004FF480529A600D4B0022DA600B4B4FF4EF
:1015A00080621A61094B0C225A61084B00229A6131
:1015B000064B0022DA61054802F04AF90346002B87
:1015C00001D0FFF7F3FE00BF80BD00BF3004002054
:1015D0000038014080B588B000AF786007F1100393
:1015E00000221A605A609A60DA607B681B681C4AA5
:1015F000934231D11B4B9B691A4A43F48043936158
:10160000184B9B6903F48043FB60FB68154B9B6997
:10161000144A43F004039361124B9B6903F00403E3
:10162000BB60BB684FF400733B6102237B61032303
:10163000FB6107F1100319460B4800F0D9FD4FF488
:1016400080633B6100237B610023BB6107F11003D2
:101650001946054800F0CCFD00BF2037BD4680BDCF
:10166000003801400010024000080140FFF716FF5B
:101670000B480C490C4A002302E0D458C4500433F0
:10168000C4188C42F9D3094A094C002301E01360C5
:101690000432A242FBD302F0C1F9FFF799FD704773
:1016A0000000002070030020C43A000870030020EE
:1016B0007C040020FEE7000080B500AF084B1B68EB
:1016C000074A43F010031360032000F04FFD002091
:1016D00000F008F8FFF772FE0023184680BD00BF37
:1016E0000020024080B582B000AF7860124B1A68CB
:1016F000124B1B7819464FF47A73B3FBF1F3B2FB2C
:10170000F3F3184600F067FD0346002B01D00123D8
:101710000EE07B680F2B0AD8002279684FF0FF306B
:1017200000F02FFD064A7B681360002300E00123D0
:1017300018460837BD4680BD640300206C030020B6
:101740006803002080B400AF054B1B781A46054B98
:101750001B681344034A136000BFBD4680BC70473A
:101760006C0300207804002080B400AF024B1B689B
:101770001846BD4680BC70477804002080B586B00E
:1017800000AF78600023FB7500233B610023BB6042
:101790000023FB607B68002B01D10123BEE07B6846
:1017A0009B68002B7B689B6A002B09D17B68002219
:1017B000DA627B68002283F824207868FFF79AFCBD
:1017C000786800F0C5FB0346FB757B689B6A03F0F5
:1017D0001003002B40F09980FB7D002B40F095809A
:1017E0007B689B6A23F4885323F0020343F00202D0
:1017F0007B689A627B685A687B68DB691A437B68FE
:101800001B7B5B001343BA681343BB607B689B6818
:10181000B3F5807F03D07B689B68012B02D14FF426
:10182000807300E000233A6913433B617B681B7DB2
:10183000012B19D17B681B7B002B09D17B689B692D
:10184000013B5A033B69134343F400633B610BE0E4
:101850007B689B6A43F020027B689A627B68DB6A44
:1018600043F001027B68DA627B681B685B6823F4E3
:1018700069417B681B683A690A435A607B681B6848
:101880009A68284B13407A681268B9680B439360D2
:101890007B689B68B3F5807F03D07B689B68012BD6
:1018A00004D17B681B69013B1B05FB607B681B68DF
:1018B000DB6A23F470017B681B68FA680A43DA620A
:1018C0007B681B689A68184B1340BA689A420BD120
:1018D0007B680022DA627B689B6A23F0030343F093
:1018E00001027B689A6218E07B689B6A23F012030E
:1018F00043F010027B689A627B68DB6A43F0010266
:101900007B68DA620123FB7507E07B689B6A43F022
:1019100010027B689A620123FB75FB7D184618371D
:10192000BD4680BDFDF7E1FFFE0E1FFF80B584B010
:1019300000AF78600023FB737B6893F82430012BA1
:1019400001D1022398E07B68012283F82420786883
:1019500000F0A4FA0346FB73FB7B002B40F087806A
:101960007B689B6A23F4407323F0010343F4807285
:101970007B689A627B681B68414A934205D1414B60
:101980005B6803F47023002B15D17B689B6A23F4FA
:1019900080127B689A627B681B685B6803F48063D3
:1019A000002B26D07B689B6A23F4405343F480527B
:1019B0007B689A621DE07B689B6A43F480127B68B7
:1019C0009A627B681B682F4A934204D07B681B682D
:1019D0002B4A93420DD12B4B5B6803F48063002BA1
:1019E00007D07B689B6A23F4405343F480527B68A2
:1019F0009A627B689B6A03F48053002B06D07B6855
:101A0000DB6A23F006027B68DA6202E07B68002270
:101A1000DA627B68002283F824207B681B686FF001
:101A200002021A607B681B689B6803F46023B3F5AD
:101A3000602F13D17B681B68114A934205D1114B6B
:101A40005B6803F47023002B08D17B681B689A68DD
:101A50007B681B6842F4A0029A600CE07B681B68FC
:101A60009A687B681B6842F480129A6003E07B6886
:101A7000002283F82420FB7B18461037BD4680BD2A
:101A8000002801400024014090B587B000AF786085
:101A9000396000237B610023FB6000233B61FFF77B
:101AA00063FE78617B681B689B6803F48073002B7E
:101AB0000BD07B689B6A43F020027B689A627B684C
:101AC000002283F824200123D3E07B681B685B6835
:101AD00003F48073002B31D17B681B68DB6A03F44D
:101AE0007003002B2AD121E03B68B3F1FF3F1DD0EA
:101AF0003B68002B07D0FFF737FE02467B69D31AFD
:101B00003A689A4212D27B681B681B6803F0020392
:101B1000002B0BD17B689B6A43F004027B689A62BE
:101B20007B68002283F824200323A2E07B681B68E3
:101B30001B6803F00203002BD6D070E04F4B1C68EB
:101B4000022001F0D1F90346B4FBF3F27B681B6875
:101B500019694B4B0B40002B18D17B681B68D96867
:101B6000484B0B40002B11D17B681B681969464B11
:101B70000B40002B08D17B681B68D968434B0B4096
:101B8000002B01D1142320E029231EE07B681B6871
:101B900019693D4B0B40002B06D17B681B68D96847
:101BA0003A4B0B40002B0DD07B681B681969384BF2
:101BB0000B40002B08D17B681B68D968344B0B4065
:101BC000002B01D1542300E0FC2302FB03F33B6113
:101BD00021E03B68B3F1FF3F1AD03B68002B07D0F0
:101BE000FFF7C2FD02467B69D31A3A689A420FD2C8
:101BF000FB683A699A420BD97B689B6A43F00402FE
:101C00007B689A627B68002283F82420032330E0FB
:101C1000FB680133FB60FB683A699A42D9D87B685C
:101C20001B686FF012021A607B689B6A43F40072B3
:101C30007B689A627B681B689B6803F46023B3F53A
:101C4000602F15D17B681B7B002B11D17B689B6AB1
:101C500023F480727B689A627B689B6A03F48053EA
:101C6000002B05D17B689B6A43F001027B689A6276
:101C7000002318461C37BD4690BD00BF64030020FA
:101C80002449922424499200922449129224490022
:101C90004992240080B483B000AF78607B681B68F1
:101CA000DB6C18460C37BD4680BC704780B485B0ED
:101CB00000AF786039600023FB730023BB607B6852
:101CC00093F82430012B01D10223DCE07B68012250
:101CD00083F824203B685B68062B1CD87B681B6854
:101CE000596B3B685A6813469B001344053B1F22FF
:101CF00002FA03F3DB4319403B6818683B685A68F3
:101D000013469B001344053B00FA03F27B681B68F3
:101D10000A435A633CE03B685B680C2B1CD87B6829
:101D20001B68196B3B685A6813469B001344233B9E
:101D30001F2202FA03F3DB4319403B6818683B6833
:101D40005A6813469B001344233B00FA03F27B6856
:101D50001B680A431A631BE07B681B68D96A3B68EF
:101D60005A6813469B001344413B1F2202FA03F3B7
:101D7000DB4319403B6818683B685A6813469B0070
:101D80001344413B00FA03F27B681B680A43DA62A2
:101D90003B681B68092B1CD97B681B68D9683B68AA
:101DA0001A6813465B0013441E3B072202FA03F332
:101DB000DB4319403B6898683B681A6813465B0030
:101DC00013441E3B00FA03F27B681B680A43DA6087
:101DD00019E07B681B6819693B681A6813465B0049
:101DE0001344072202FA03F3DB4319403B68986867
:101DF0003B681A6813465B00134400FA03F27B68E1
:101E00001B680A431A613B681B68102B03D03B68B0
:101E10001B68112B32D17B681B681D4A934225D168
:101E20007B681B689B6803F40003002B26D17B684A
:101E30001B689A687B681B6842F400029A603B68E2
:101E40001B68102B1AD1134B1B68134AA2FB0323E8
:101E50009A0C13469B0013445B00BB6002E0BB6816
:101E6000013BBB60BB68002BF9D107E07B689B6A34
:101E700043F020027B689A620123FB737B68002297
:101E800083F82420FB7B18461437BD4680BC70477E
:101E9000002401406403002083DE1B4380B584B02E
:101EA00000AF78600023FB600023BB607B681B6889
:101EB0009B6803F00103012B40D07B681B689A6884
:101EC0007B681B6842F001029A601F4B1B681F4A27
:101ED000A2FB03239B0CBB6002E0BB68013BBB6021
:101EE000BB68002BF9D1FFF73FFCF8601FE0FFF75C
:101EF0003BFC0246FB68D31A022B18D97B681B688F
:101F00009B6803F00103012B11D07B689B6A43F0AF
:101F100010027B689A627B68DB6A43F001027B688F
:101F2000DA627B68002283F82420012307E07B68C3
:101F30001B689B6803F00103012BD8D100231846CE
:101F40001037BD4680BD00BF6403002083DE1B4305
:101F500080B584B000AF78600023FB607B681B68AD
:101F60009B6803F00103012B2ED17B681B689A68E4
:101F70007B681B6822F001029A60FFF7F5FBF860AE
:101F80001BE0FFF7F1FB0246FB68D31A022B14D9C2
:101F90007B681B689B6803F00103012B0DD17B68F4
:101FA0009B6A43F010027B689A627B68DB6A43F0AD
:101FB00001027B68DA62012307E07B681B689B688B
:101FC00003F00103012BDCD0002318461037BD4677
:101FD00080BD000080B485B000AF78607B6803F0FE
:101FE0000703FB600C4BDB68BB60BA684FF6FF036E
:101FF0001340BB60FB681A02BB68134343F0BF6326
:1020000043F40033BB60044ABB68D36000BF14379D
:10201000BD4680BC704700BF00ED00E080B400AF5B
:10202000044BDB681B0A03F007031846BD4680BC5F
:10203000704700BF00ED00E080B483B000AF0346FE
:10204000FB7197F90730002B0BDBFB7903F01F02C4
:10205000064997F907305B09012000FA02F241F8BE
:10206000232000BF0C37BD4680BC704700E100E074
:1020700080B483B000AF03463960FB7197F9073035
:10208000002B0ADB3B68DAB20C4997F907301201E2
:10209000D2B20B4483F800230AE03B68DAB2084965
:1020A000FB7903F00F03043B1201D2B20B441A7602
:1020B00000BF0C37BD4680BC704700BF00E100E0A8
:1020C00000ED00E080B489B000AFF860B9607A60DC
:1020D000FB6803F00703FB61FB69C3F10703042BF3
:1020E00028BF0423BB61FB690433062B02D9FB69BB
:1020F000033B00E000237B614FF0FF32BB6902FA33
:1021000003F3DA43BB681A407B699A404FF0FF3112
:102110007B6901FA03F3D9437B680B4013431846EC
:102120002437BD4680BC704780B582B000AF786070
:102130007B68013BB3F1807F01D301230FE00A4AA2
:102140007B68013B53600F214FF0FF30FFF790FF9A
:10215000054B00229A60044B07221A6000231846A0
:102160000837BD4680BD00BF10E000E080B582B0FA
:1021700000AF78607868FFF72DFF00BF0837BD46D5
:1021800080BD80B586B000AF0346B9607A60FB734E
:1021900000237B61FFF742FF78617A68B96878694C
:1021A000FFF790FF024697F90F3011461846FFF7E8
:1021B0005FFF00BF1837BD4680BD80B582B000AF5D
:1021C0000346FB7197F907301846FFF735FF00BF4C
:1021D0000837BD4680BD80B582B000AF78607868B2
:1021E000FFF7A2FF034618460837BD4680BD000032
:1021F00080B48BB000AF7860396000237B6200232D
:102200003B6269E101227B6A02FA03F3FB613B68EE
:102210001B68FA691340BB61BA69FB699A4240F0D6
:1022200058813B685B689A4A93425ED0984A9342D1
:1022300075D8984A934258D0964A93426FD8964A96
:10224000934252D0944A934269D8944A93424CD0D4
:10225000924A934263D8924A934246D0904A93421C
:102260005DD8122B2AD8122B59D801A252F823F08C
:10227000EB220008C5220008D72200081923000815
:102280001F2300081F2300081F2300081F23000826
:102290001F2300081F2300081F2300081F23000816
:1022A0001F2300081F2300081F2300081F23000806
:1022B0001F230008CD220008E1220008794A93423A
:1022C00013D02CE03B68DB683B6229E03B68DB68AD
:1022D00004333B6224E03B68DB6808333B621FE069
:1022E0003B68DB680C333B621AE03B689B68002B61
:1022F00002D104233B6213E03B689B68012B05D1AC
:1023000008233B627B68FA691A6109E008233B6293
:102310007B68FA695A6103E000233B6200E000BF7A
:10232000BB69FF2B01D87B6801E07B6804337B61CC
:10233000BB69FF2B02D87B6A9B0002E07B6A083BEB
:102340009B003B617B691A680F213B6901FA03F32B
:10235000DB431A40396A3B6901FA03F31A437B698C
:102360001A603B685B6803F08053002B00F0B1807B
:102370004D4B9B694C4A43F0010393614A4B9B6967
:1023800003F00103BB60BB68484A7B6A9B080233C9
:1023900052F82330FB607B6A03F003039B000F229B
:1023A00002FA03F3DB43FA681340FB607B68404AA0
:1023B000934213D07B683F4A93420DD07B683E4ADC
:1023C000934207D07B683D4A934201D1032306E044
:1023D000042304E0022302E0012300E000237A6AE0
:1023E00002F0030292009340FA681343FB602F4906
:1023F0007B6A9B080233FA6841F823203B685B68DC
:1024000003F48013002B06D02D4B9A682C49BB692E
:1024100013438B6006E02A4B9A68BB69DB4328496B
:1024200013408B603B685B6803F40013002B06D0FD
:10243000234BDA682249BB691343CB6006E0204B8B
:10244000DA68BB69DB431E491340CB603B685B68BD
:1024500003F40033002B06D0194B5A681849BB69A6
:1024600013434B6006E0164B5A68BB69DB431449C3
:1024700013404B603B685B6803F48033002B21D032
:102480000F4B1A680E49BB6913430B6021E000BF74
:102490000000321000003110000022100000211056
:1024A0000000121000001110001002400000014056
:1024B00000080140000C01400010014000140140E0
:1024C000000401400B4B1A68BB69DB430949134008
:1024D0000B607B6A01337B623B681A687B6A22FA75
:1024E00003F3002B7FF48EAE00BF00BF2C37BD4638
:1024F00080BC70470004014080B483B000AF7860B6
:102500000B467B8013467B707B78002B03D07A8848
:102510007B681A6103E07B881A047B681A6100BF3C
:102520000C37BD4680BC704780B485B000AF786082
:102530000B467B807B68DB68FB607A88FB68134016
:102540001A04FB68D9437B880B401A437B681A61E5
:1025500000BF1437BD4680BC7047000080B586B010
:1025600000AF78607B68002B01D1012372E27B68A9
:102570001B6803F00103002B00F08780924B5B681F
:1025800003F00C03042B0CD08F4B5B6803F00C039F
:10259000082B12D18C4B5B6803F48033B3F5803F7A
:1025A0000BD1894B1B6803F40033002B6CD07B6884
:1025B0005B68002B68D101234CE27B685B68B3F554
:1025C000803F06D1804B1B687F4A43F48033136001
:1025D0002EE07B685B68002B0CD17B4B1B687A4A32
:1025E00023F480331360784B1B68774A23F48023ED
:1025F00013601DE07B685B68B3F5A02F0CD1724BB4
:102600001B68714A43F4802313606F4B1B686E4A4A
:1026100043F4803313600BE06B4B1B686A4A23F46E
:1026200080331360684B1B68674A23F48023136070
:102630007B685B68002B13D0FFF796F8386108E0E1
:10264000FFF792F802463B69D31A642B01D90323A2
:1026500000E25D4B1B6803F40033002BF0D014E064
:10266000FFF782F8386108E0FFF77EF802463B6921
:10267000D31A642B01D90323ECE1534B1B6803F4F9
:102680000033002BF0D100E000BF7B681B6803F033
:102690000203002B63D04C4B5B6803F00C03002B50
:1026A0000BD0494B5B6803F00C03082B1CD1464B45
:1026B0005B6803F48033002B16D1434B1B6803F097
:1026C0000203002B05D07B681B69012B01D001237D
:1026D000C0E13D4B1B6823F0F8027B685B69DB00BF
:1026E000394913430B603AE07B681B69002B20D00B
:1026F000364B01221A60FFF737F8386108E0FFF720
:1027000033F802463B69D31A022B01D90323A1E116
:102710002D4B1B6803F00203002BF0D02A4B1B68E3
:1027200023F0F8027B685B69DB00274913430B60E9
:1027300015E0264B00221A60FFF716F8386108E012
:10274000FFF712F802463B69D31A022B01D9032383
:1027500080E11D4B1B6803F00203002BF0D17B6866
:102760001B6803F00803002B3AD07B689B69002BA1
:1027700019D0174B01221A60FEF7F6FF386108E006
:10278000FEF7F2FF02463B69D31A022B01D903235D
:1027900060E10D4B5B6A03F00203002BF0D00120D7
:1027A00000F0CEFA1CE00A4B00221A60FEF7DCFFB4
:1027B00038610FE0FEF7D8FF02463B69D31A022BBF
:1027C00008D9032346E100BF001002400000424246
:1027D00080044242924B5B6A03F00203002BE9D172
:1027E0007B681B6803F00403002B00F0A680002325
:1027F000FB758B4BDB6903F08053002B0DD1884BAD
:10280000DB69874A43F08053D361854BDB6903F072
:102810008053BB60BB680123FB75824B1B6803F4CC
:102820008073002B18D17F4B1B687E4A43F4807362
:102830001360FEF799FF386108E0FEF795FF024646
:102840003B69D31A642B01D9032303E1754B1B6841
:1028500003F48073002BF0D07B68DB68012B06D17A
:102860006F4B1B6A6E4A43F0010313622DE07B68D5
:10287000DB68002B0CD16A4B1B6A694A23F0010309
:102880001362674B1B6A664A23F0040313621CE061
:102890007B68DB68052B0CD1614B1B6A604A43F0F7
:1028A000040313625E4B1B6A5D4A43F0010313622B
:1028B0000BE05B4B1B6A5A4A23F001031362584B2F
:1028C0001B6A574A23F0040313627B68DB68002B02
:1028D00015D0FEF749FF38610AE0FEF745FF0246D2
:1028E0003B69D31A41F28832934201D90323B1E004
:1028F0004B4B1B6A03F00203002BEED014E0FEF7F3
:1029000033FF38610AE0FEF72FFF02463B69D31A16
:1029100041F28832934201D903239BE0404B1B6A6A
:1029200003F00203002BEED1FB7D012B05D13C4BC4
:10293000DB693B4A23F08053D3617B68DB69002B62
:1029400000F08780364B5B6803F00C03082B61D0E6
:102950007B68DB69022B46D1334B00221A60FEF7FD
:1029600003FF386108E0FEF7FFFE02463B69D31A19
:10297000022B01D903236DE0294B1B6803F0007380
:10298000002BF0D17B681B6AB3F5803F08D1244B44
:102990005B6823F400327B689B68214913434B60DA
:1029A0001F4B5B6823F474127B68196A7B685B6A4F
:1029B0000B431B4913434B601B4B01221A60FEF76C
:1029C000D3FE386108E0FEF7CFFE02463B69D31A1A
:1029D000022B01D903233DE0114B1B6803F0007368
:1029E000002BF0D035E0104B00221A60FEF7BCFE41
:1029F000386108E0FEF7B8FE02463B69D31A022BA5
:102A000001D9032326E0064B1B6803F00073002B5B
:102A1000F0D11EE07B68DB69012B07D1012319E0AF
:102A20000010024000700040600042420B4B5B68A7
:102A3000FB60FB6803F480327B681B6A9A4206D114
:102A4000FB6803F470127B685B6A9A4201D0012331
:102A500000E0002318461837BD4680BD0010024034
:102A600080B584B000AF786039607B68002B01D1FD
:102A70000123D0E06A4B1B6803F007033A689A42CF
:102A800010D9674B1B6823F0070265493B68134365
:102A90000B60634B1B6803F007033A689A4201D04E
:102AA0000123B8E07B681B6803F00203002B20D0F1
:102AB0007B681B6803F00403002B05D0594B5B684F
:102AC000584A43F4E06353607B681B6803F00803D3
:102AD000002B05D0534B5B68524A43F4605353605C
:102AE000504B5B6823F0F0027B689B684D491343B1
:102AF0004B607B681B6803F00103002B40D07B68B0
:102B00005B68012B07D1474B1B6803F40033002B94
:102B100015D101237FE07B685B68022B07D1414B15
:102B20001B6803F00073002B09D1012373E03D4BB8
:102B30001B6803F00203002B01D101236BE0394B2A
:102B40005B6823F003027B685B68364913434B6084
:102B5000FEF70AFEF8600AE0FEF706FE0246FB6892
:102B6000D31A41F28832934201D9032353E02D4B0B
:102B70005B6803F00C027B685B689B009A42EBD1B8
:102B8000274B1B6803F007033A689A4210D2244B84
:102B90001B6823F0070222493B6813430B60204B5C
:102BA0001B6803F007033A689A4201D0012332E020
:102BB0007B681B6803F00403002B08D0194B5B688B
:102BC00023F4E0627B68DB68164913434B607B6843
:102BD0001B6803F00803002B09D0124B5B6823F439
:102BE00060527B681B69DB000E4913434B6000F0A9
:102BF00021F802460B4B5B681B0903F00F030A49DF
:102C0000CB5C22FA03F3094A1360094B1B68184690
:102C1000FEF768FD002318461037BD4680BD00BF93
:102C200000200240001002407C3A000864030020AB
:102C30006803002080B487B000AF0023FB6000234E
:102C4000BB6000237B6100237B6000233B611E4B44
:102C50005B68FB60FB6803F00C03042B02D0082BBD
:102C600003D027E0194B3B6127E0FB689B0C03F086
:102C70000F03174AD35C7B60FB6803F48033002B9F
:102C800010D0114B5B685B0C03F00103114AD35C5D
:102C9000BB607B680D4A03FB02F2BB68B2FBF3F337
:102CA0007B6104E07B680C4A02FB03F37B617B6978
:102CB0003B6102E0054B3B6100BF3B6918461C3796
:102CC000BD4680BC704700BF0010024000127A0071
:102CD000943A0008A43A000800093D0080B400AF0F
:102CE000024B1B681846BD4680BC70476403002039
:102CF00080B500AFFFF7F2FF0246054B5B681B0A89
:102D000003F007030349CB5C22FA03F3184680BDA6
:102D1000001002408C3A000880B500AFFFF7DEFFDC
:102D20000246054B5B68DB0A03F007030349CB5CF3
:102D300022FA03F3184680BD001002408C3A0008C6
:102D400080B485B000AF78600A4B1B680A4AA2FBCA
:102D500003235B0A7A6802FB03F3FB6000BFFB6896
:102D60005A1EFA60002BF9D100BF00BF1437BD46D0
:102D700080BC704764030020D34D621080B586B0DC
:102D800000AF786000233B610023FB607B681B6819
:102D900003F00103002B7DD00023FB754F4BDB6953
:102DA00003F08053002B0DD14C4BDB694B4A43F0B1
:102DB0008053D361494BDB6903F08053BB60BB6830
:102DC0000123FB75464B1B6803F48073002B18D15D
:102DD000434B1B68424A43F480731360FEF7C4FC04
:102DE000386108E0FEF7C0FC02463B69D31A642B49
:102DF00001D903236DE03A4B1B6803F48073002B69
:102E0000F0D0364B1B6A03F44073FB60FB68002B69
:102E10002ED07B685B6803F44073FA689A4227D02F
:102E20002E4B1B6A23F44073FB602E4B01221A6069
:102E30002C4B00221A60294AFB681362FB6803F0DE
:102E40000103002B14D0FEF78FFC38610AE0FEF777
:102E50008BFC02463B69D31A41F28832934201D976
:102E6000032336E01D4B1B6A03F00203002BEED058
:102E70001A4B1B6A23F440727B685B681749134343
:102E80000B62FB7D012B05D1144BDB69134A23F048
:102E90008053D3617B681B6803F00203002B08D0CA
:102EA0000E4B5B6823F440427B689B680B491343DD
:102EB0004B607B681B6803F01003002B08D0074BA6
:102EC0005B6823F480027B68DB68044913434B6032
:102ED000002318461837BD4680BD00BF00100240D1
:102EE000007000404004424280B588B000AF786076
:102EF00000237B610023FB6100233B610023FB6017
:102F00000023BB617B68102B0AD07B68102B00F27A
:102F10008A807B68012B45D07B68022B75D082E0CC
:102F2000464B5B68FB60454B1B6803F08073002BCE
:102F30007BD0FB689B0C03F00F03414AD35C3B61E1
:102F4000FB6803F48033002B15D03C4B5B685B0CB3
:102F500003F001033B4AD35C7B61FB6803F48033DD
:102F6000002B0DD0384A7B69B2FBF3F23B6902FBC0
:102F700003F3FB6104E03B69344A02FB03F3FB61AA
:102F80002E4B5B6803F48003B3F5800F02D1FB691D
:102F9000BB614AE0FB695B002D4AA2FB03235B088F
:102FA000BB6142E0254B1B6AFB60FB6803F4407386
:102FB000B3F5807F08D1FB6803F00203002B03D038
:102FC0004FF40043BB611FE0FB6803F44073B3F5AB
:102FD000007F09D1194B5B6A03F00203002B03D079
:102FE00049F64043BB610FE0FB6803F44073B3F55F
:102FF000407F1CD1114B1B6803F40033002B16D00B
:103000004FF22443BB6112E011E0FFF785FE024658
:103010000A4B5B689B0B03F0030301335B00B2FBBD
:10302000F3F3BB6104E000BF02E000BF00E000BFBB
:10303000BB6918462037BD4680BD00BF0010024066
:10304000A83A0008B83A000800127A0000093D00CA
:10305000ABAAAAAA80B582B000AF78607B68002BCB
:1030600001D1012341E07B6893F83D30DBB2002BB6
:1030700006D17B68002283F83C207868FEF762FA6C
:103080007B68022283F83D207B681A687B680433E2
:103090001946104600F074FA7B68012283F8462036
:1030A0007B68012283F83E207B68012283F83F2061
:1030B0007B68012283F840207B68012283F841204D
:1030C0007B68012283F842207B68012283F8432039
:1030D0007B68012283F844207B68012283F8452025
:1030E0007B68012283F83D20002318460837BD463F
:1030F00080BD000080B485B000AF78607B6893F835
:103100003D30DBB2012B01D001233AE07B68022283
:1031100083F83D207B681B68DA687B681B6842F097
:103120000102DA607B681B68184A93420ED07B6804
:103130001B68B3F1804F09D07B681B68144A934227
:1031400004D07B681B68134A934211D17B681B68CB
:103150009B6803F00703FB60FB68062B10D07B68BD
:103160001B681A687B681B6842F001021A6007E05E
:103170007B681B681A687B681B6842F001021A6052
:10318000002318461437BD4680BC7047002C014010
:10319000000400400008004080B582B000AF7860B5
:1031A0007B681B681B6903F00203022B22D17B683A
:1031B0001B68DB6803F00203022B1BD17B681B68D2
:1031C0006FF002021A617B6801221A777B681B6824
:1031D0009B6903F00303002B03D0786800F0B4F977
:1031E00005E0786800F0A7F9786800F0B6F97B6828
:1031F00000221A777B681B681B6903F00403042B09
:1032000022D17B681B68DB6803F00403042B1BD10D
:103210007B681B686FF004021A617B6802221A77D0
:103220007B681B689B6903F44073002B03D07868AC
:1032300000F08AF905E0786800F07DF9786800F020
:103240008CF97B6800221A777B681B681B6903F086
:103250000803082B22D17B681B68DB6803F0080396
:10326000082B1BD17B681B686FF008021A617B6812
:1032700004221A777B681B68DB6903F00303002BC9
:1032800003D0786800F060F905E0786800F053F941
:10329000786800F062F97B6800221A777B681B6807
:1032A0001B6903F01003102B22D17B681B68DB68BD
:1032B00003F01003102B1BD17B681B686FF010020A
:1032C0001A617B6808221A777B681B68DB6903F444
:1032D0004073002B03D0786800F036F905E0786879
:1032E00000F029F9786800F038F97B6800221A7735
:1032F0007B681B681B6903F00103012B0ED17B68FF
:103300001B68DB6803F00103012B07D17B681B6896
:103310006FF001021A617868FEF723F87B681B687A
:103320001B6903F08003802B0ED17B681B68DB6870
:1033300003F08003802B07D17B681B686FF080024D
:103340001A61786800F07BFA7B681B681B6903F0E0
:103350004003402B0ED17B681B68DB6803F0400301
:10336000402B07D17B681B686FF040021A617868B8
:1033700000F0FCF87B681B681B6903F02003202B1E
:103380000ED17B681B68DB6803F02003202B07D17C
:103390007B681B686FF020021A61786800F046FABB
:1033A00000BF0837BD4680BD80B584B000AF7860EF
:1033B00039600023FB737B6893F83C30012B01D10B
:1033C0000223B4E07B68012283F83C207B68022260
:1033D00083F83D207B681B689B68BB60BB6823F05B
:1033E0007703BB60BB6823F47F43BB607B681B68CB
:1033F000BA689A603B681B68B3F5005F3ED0B3F5CE
:10340000005F00F28780B3F5805F00F08680B3F53F
:10341000805F7FD8702B1AD0702B7BD8602B50D058
:10342000602B77D8502B3CD0502B73D8402B58D0E2
:10343000402B6FD8302B64D0302B6BD8202B60D032
:10344000202B67D8002B5CD0102B5AD062E07B6811
:1034500018683B6899683B685A683B68DB6800F00D
:1034600068F97B681B689B68BB60BB6843F07703A7
:10347000BB607B681B68BA689A604FE07B6818681D
:103480003B6899683B685A683B68DB6800F051F913
:103490007B681B689A687B681B6842F480429A606C
:1034A0003CE07B6818683B6859683B68DB681A46F3
:1034B00000F0C8F87B681B685021184600F01FF91F
:1034C0002CE07B6818683B6859683B68DB681A46E3
:1034D00000F0E6F87B681B686021184600F00FF9E1
:1034E0001CE07B6818683B6859683B68DB681A46D3
:1034F00000F0A8F87B681B684021184600F0FFF830
:103500000CE07B681A683B681B681946104600F09F
:10351000F6F803E00123FB7300E000BF7B680122A3
:1035200083F83D207B68002283F83C20FB7B184613
:103530001037BD4680BD80B483B000AF786000BF57
:103540000C37BD4680BC704780B483B000AF786054
:1035500000BF0C37BD4680BC704780B483B000AF5D
:10356000786000BF0C37BD4680BC704780B483B024
:1035700000AF786000BF0C37BD4680BC70470000CC
:1035800080B485B000AF786039607B681B68FB60F1
:103590007B68294A93420BD07B68B3F1804F07D0F8
:1035A0007B68264A934203D07B68254A934208D120
:1035B000FB6823F07003FB603B685B68FA681343A9
:1035C000FB607B681C4A93420BD07B68B3F1804F51
:1035D00007D07B68194A934203D07B68184A93420C
:1035E00008D1FB6823F44073FB603B68DB68FA6832
:1035F0001343FB60FB6823F080023B685B69134365
:10360000FB607B68FA681A603B689A687B68DA62DC
:103610003B681A687B689A627B68074A934203D1C9
:103620003B681A697B681A637B6801225A6100BF94
:103630001437BD4680BC7047002C01400004004098
:103640000008004080B487B000AFF860B9607A60CD
:10365000FB681B6A7B61FB681B6A23F00102FB6845
:103660001A62FB689B693B613B6923F0F0033B6195
:103670007B681B013A6913433B617B6923F00A03B2
:103680007B617A69BB6813437B61FB683A699A6125
:10369000FB687A691A6200BF1C37BD4680BC704760
:1036A00080B487B000AFF860B9607A60FB681B6ACD
:1036B0007B61FB681B6A23F01002FB681A62FB68DF
:1036C0009B693B613B6923F470433B617B681B034F
:1036D0003A6913433B617B6923F0A0037B61BB68BC
:1036E0001B017A6913437B61FB683A699A61FB6845
:1036F0007A691A6200BF1C37BD4680BC704780B42F
:1037000085B000AF786039607B689B68FB60FB68C0
:1037100023F07003FB603A68FB68134343F0070330
:10372000FB607B68FA689A6000BF1437BD4680BCB6
:10373000704780B487B000AFF860B9607A603B60D2
:10374000FB689B687B617B6923F47F437B613B68FB
:103750001A027B681A43BB6813437A6913437B617F
:10376000FB687A699A6000BF1C37BD4680BC704711
:1037700080B485B000AF786039607B6893F83C30E6
:10378000012B01D1022346E07B68012283F83C2013
:103790007B68022283F83D207B681B685B68FB60C6
:1037A0007B681B689B68BB60FB6823F07003FB6051
:1037B0003B681B68FA681343FB607B681B68FA6808
:1037C0005A607B681B68164A93420ED07B681B6860
:1037D000B3F1804F09D07B681B68124A934204D032
:1037E0007B681B68104A93420CD1BB6823F08003AE
:1037F000BB603B685B68BA681343BB607B681B684F
:10380000BA689A607B68012283F83D207B680022B9
:1038100083F83C20002318461437BD4680BC70470F
:10382000002C0140000400400008004080B483B038
:1038300000AF786000BF0C37BD4680BC704780B4D5
:1038400083B000AF786000BF0C37BD4680BC7047C6
:1038500080B582B000AF78607B68002B01D1012376
:1038600042E07B6893F84130DBB2002B06D17B68E5
:10387000002283F840207868FDF7ACFE7B682422A4
:1038800083F841207B681B68DA687B681B6822F438
:103890000052DA60786800F02BF87B681B681A69C0
:1038A0007B681B6822F490421A617B681B685A6926
:1038B0007B681B6822F02A025A617B681B68DA6801
:1038C0007B681B6842F40052DA607B6800225A640D
:1038D0007B68202283F841207B68202283F84220E5
:1038E0007B6800225A63002318460837BD4680BD16
:1038F00080B584B000AF78607B681B681B6923F4D7
:1039000040517B68DA687B681B680A431A617B68F0
:103910009A687B681B691A437B685B691343BB60C9
:103920007B681B68DB6823F4B05323F00C037A68D0
:103930001268B9680B43D3607B681B685B6923F42A
:1039400040717B689A697B681B680A435A617B688F
:103950001B682C4A934203D1FFF7DEF9F86002E0BE
:10396000FFF7C6F9F860FA6813469B0013449A0003
:103970001A447B685B689B00B2FBF3F3224AA2FB0C
:1039800003235B091901FA6813469B0013449A004C
:103990001A447B685B689B00B2FBF3F21A4BA3FBF3
:1039A00002035B09642000FB03F3D31A1B013233CB
:1039B000154AA2FB03235B0903F0F0031944FA68DC
:1039C00013469B0013449A001A447B685B689B0073
:1039D000B2FBF3F20C4BA3FB02035B09642000FB78
:1039E00003F3D31A1B013233074AA2FB03235B09FB
:1039F00003F00F027B681B680A449A6000BF10370F
:103A0000BD4680BD003801401F85EB51034602448E
:103A1000934200D1704703F8011BF9E770B5002607
:103A20000C4D0D4C641BA410A64209D100F01AF8ED
:103A300000260A4D0A4C641BA410A64205D170BD95
:103A400055F8043B98470136EEE755F8043B984794
:103A50000136F2E7BC3A0008BC3A0008BC3A00085C
:103A6000C03A0008F8B500BFF8BC08BC9E467047D5
:0C3A7000F8B500BFF8BC08BC9E467047CB
:103A7C000000000000000000010203040607080912
:103A8C0000000000010203040203040506070809F4
:103A9C000A0B0C0D0E0F101001020000020304059E
:103AAC00060708090A0B0C0D0E0F1010010200007E
:043ABC0035010008C8
:043AC00011010008E8
:103AC400AB390000AB690000AA350000AA3500003C
:103AD400AA350000AA350000AA350000AD0C000884
:103AE400204E000000000000890C00081027000090
:103AF40000000000710C0008E80300000000000052
:103B0400E5002400FFFFFFFF0000000000000000AC
:103B140000000000000000000000000000000000A1
:103B24000000000000000000000000000000000091
:103B34000000000000000000000000000000000081
:103B44000000000000000000000000000000000071
:103B54000000000000000000000000000000000061
:103B64000000000000000000000000000000000051
:103B74000000000000000000000000000000000041
:103B84000000000000000000000000000000000031
:103B94000000000000000000000000000000000021
:103BA4000000000000000000000000000000000011
:103BB4000000000000000000000000000000000001
:103BC40000000000000000000000000000000000F1
:103BD40000000000000000000000000000000000E1
:103BE40000000000000000000000000000000000D1
:103BF40000000000000000000000000000000000C1
:103C040000000000000000000000000000000000B0
:103C140000000000000000000000000000000000A0
:103C24000000000000000000000000000000000090
:103C34000000000000000000000000000000000080
:103C44000000000000000000000000000000000070
:103C54000000000000000000000000000000000060
:103C64000000000000000000000000000000000050
:103C74000000000000000000000000000000000040
:103C84000000000000000000000000000000000030
:103C940000000000FFFFFFFF000000000000000024
:103CA4000000000000000000000000000000000010
:103CB4000000000000000000000000000000000000
:103CC40000000000000000000000000000000000F0
:103CD40000000000000000000000000000000000E0
:103CE40000000000000000000000000000000000D0
:103CF40000000000000000000000000000000000C0
:103D040000000000000000000000000000000000AF
:103D1400000000000000000000000000000000009F
:103D2400000000000000000000000000000000008F
:103D3400000000000000000000000000000000007F
:103D4400000000000000000000000000000000006F
:103D5400000000000000000000000000000000005F
:103D6400000000000000000000000000000000004F
:103D7400000000000000000000000000000000003F
:103D8400000000000000000000000000000000002F
:103D9400000000000000000000000000000000001F
:103DA400000000000000000000000000000000000F
:103DB40000000000000000000000000000000000FF
:103DC40000000000000000000000000000000000EF
:103DD40000000000000000000000000000000000DF
:103DE40000000000000000000000000000000000CF
:103DF40000000000000000000000000000000000BF
:103E040000000000000000000000000000000000AE
:103E1400000000000000000000000000000000009E
:103E2400000000000024F400100000000100000065
:040000050800166D6C
:00000001FF
